:100000000C9434000C943E000C943E000C943E0082
:100010000C943E000C943E000C943E000C943E0068
:100020000C943E000C943E000C943E000C943E0058
:100030000C943E000C943E000C943E000C943E0048
:100040000C943E000C943E000C943E000C943E0038
:100050000C943E000C943E000C943E000C943E0028
:100060000C943E000C943E0011241FBECFEFD8E04C
:10007000DEBFCDBF0E9440000C9462000C940000D3
:1000800019981B9A2FE38DE093E021508040904017
:10009000E1F700C000001B981A9A2FE38DE093E06F
:1000A000215080409040E1F700C000001A98199A52
:1000B0002FE38DE093E0215080409040E1F700C0B5
:0800C0000000DECFF894FFCF31
:00000001FF
